:0300000002000EED
:0C000E00787FE4F6D8FD758109020055EA
:0600DA000108000109000D
:0900D100E5A0541F4480F5A022B3
:1000C100758901758C3C758A13D2A9D2AFD28C2265
:03000B0002009A56
:10009A00C0E0C0D0758C3C758A1305080509E508CF
:1000AA00B40A05B280750800E509B46405B287751B
:0700BA000900D0D0D0E032B4
:080003001200D11200C180FEC1
:10001A00020003E493A3F8E493A34003F68001F2F9
:10002A0008DFF48029E493A3F85407240CC8C333E7
:10003A00C4540F4420C8834004F456800146F6DFB6
:10004A00E4800B01020408102040809000DAE47E6C
:10005A00019360BCA3FF543F30E509541FFEE493AB
:10006A00A360010ECF54C025E060A840B8E493A372
:10007A00FAE493A3F8E493A3C8C582C8CAC583CA9D
:10008A00F0A3C8C582C8CAC583CADFE9DEE780BE55
:0100E000001F
:00000001FF
