:0300000002000EED
:0C000E00787FE4F6D8FD75810A020055E9
:09012D00010900010800010A00AB
:09013700E5A0541F4480F5A0224C
:0E011400758901758C63758A5BD2A9D2AF2202
:03000B000200DD13
:1000DD00C0E0C0D0758C63758A5B0509E509B5086C
:1000ED0004D280800AE509B46405C280750900D088
:0400FD00D0D0E0324D
:0B012200EF1FAC0670011E4C70F622AF
:10009A0020B03F7F647E0012012220B035E50A14A9
:1000AA00601614601B14602024037023C280D28C53
:1000BA0075080A750A018017750832750A02800FD9
:1000CA0075085A750A038007D280C28CE4F50A3093
:0300DA00B0FD2254
:1001010012013775A0FF120114120137C2801200CB
:030111009A80F6DB
:10001A00020101E493A3F8E493A34003F68001F2FA
:10002A0008DFF48029E493A3F85407240CC8C333E7
:10003A00C4540F4420C8834004F456800146F6DFB6
:10004A00E4800B010204081020408090012DE47E18
:10005A00019360BCA3FF543F30E509541FFEE493AB
:10006A00A360010ECF54C025E060A840B8E493A372
:10007A00FAE493A3F8E493A3C8C582C8CAC583CA9D
:10008A00F0A3C8C582C8CAC583CADFE9DEE780BE55
:0101360000C8
:00000001FF
