:03000000020026D5
:0C002600787FE4F6D8FD75810B02006DB8
:10000300576F726B696E672069732072756E6E69C4
:0D0013006E670077656C636F6D65202100DE
:0301C000010B0030
:1000FE00EF603224FB601314601914601F24037028
:10010E0027E5A0541F4480F5A022E5A0541F44A06B
:10011E00F5A022E5A0541F44C0F5A022E5A0541F6F
:09012E0044E0F5A02253A01F22B9
:10019F007F051200FEE4F5801F1200FE7580FF221E
:10017500758920758DFD758BFDD28E759850D2AC25
:06018500D2AFE4F58E226A
:030023000201AF28
:0901AF0030980585990BC29832C5
:0801B8008F993099FDC29922D4
:100137008B088A09890AAB08AA09A90A12015C6017
:1001470013050AE50A7002050914F912015CFF128A
:0501570001B880E22266
:1000B200E50B604754F02450601924F0602C242092
:1000C20070397F041200FEE50BF444F0FFE5804432
:1000D2000F80127F041200FEE50BF4C454F0440FAB
:1000E200FFE58044F05FF580800E7F041200FE7B06
:0C00F200FF7A007903120137E4F50B22BD
:10018B0012019F1201757BFF7A007916120137124B
:04019B0000B280FE30
:1000320002018BE493A3F8E493A34003F68001F258
:1000420008DFF48029E493A3F85407240CC8C333CF
:10005200C4540F4420C8834004F456800146F6DF9E
:10006200E4800B01020408102040809001C0E47E6D
:10007200019360BCA3FF543F30E509541FFEE49393
:10008200A360010ECF54C025E060A840B8E493A35A
:10009200FAE493A3F8E493A3C8C582C8CAC583CA85
:1000A200F0A3C8C582C8CAC583CADFE9DEE780BE3D
:0101C300003B
:10015C00BB010689828A83E0225002E722BBFE02A1
:09016C00E32289828A83E49322D4
:00000001FF
