:0300000002023DBC
:0C023D00787FE4F6D8FD75812002028471
:10044500C0F9A4B0999282F880908880C6C0868E43
:0C045500BF7F407924301912027800109B
:0A04E200040800000000020C0000F6
:0A04A900E493FD12047B7FC87E007F
:0B04B300EF1FAC0670011E4C70F6221B
:1003C000EF603624FB601414601B14602224037059
:1003D0002BE5A0541F4480F5A08021E5A0541F44C4
:1003E000A0F5A08017E5A0541F44C0F5A0800DE53E
:1003F000A0541F44E0F5A0800353A01F53A01F2268
:10047B007401A807088002C333D8FCF5807F0612ED
:08048B0003C08D800F0203C0C5
:1004D200AE077580FF7F061203C08E800F0203C035
:1002C900D3E50D9463E50C9400402BAE0CAF0D7C87
:1002D900007D641201DA74452FF58274043EF583BA
:1002E900E493FD7F0512047B7FF47E011204B37D44
:1002F900FF7F0512047BAE0CAF0D7C007D0A120155
:10030900DA7C007D0A1201DA74572DF58274043CF7
:10031900F5837F061204A97DFF7F061204ACAE0C9B
:10032900AF0D7C007D0A1201DA74452DF582740443
:100339003CF5837F071204A97DFF7F071204AC7F78
:0B034900FF1204D27FC87E000204B344
:100354001204007FCC1204277F441204271202C91E
:100364001204007FCC1204277FBE120427120461FA
:100374008F0E1204618F0F120400AF0FEFFEE50E13
:10038400FFEE54F87035AD07AC0612010EE4FBFA2B
:100394007980783D1200038F0B8E0A8D098C08E456
:1003A400FFFE7D207C41AB0BAA0AA909A808120014
:0B03B400031201478E0C8F0D1202C9CE
:0103BF00221B
:1004BE007580FF7F041203C0E4F5800F1203C07F26
:0404CE00FF0204D253
:0804ED001204BE12035480FB4F
:040493007F057E0063
:100497007C007D0A1201C8EF1FAC0670011E4C706C
:0104A700F65E
:0104A8002231
:02042700AB0721
:10042900E4FAC294EB139294120493D294EBC3139B
:0C043900FB0ABA08ED7F057E0002049764
:10046100E4FAC294EBC313FBD294309403430380A8
:090471001204930ABA08EBAF0370
:01047A00225F
:10040000C200D2947F0A7E00120497C2947F507E6D
:1004100000120497D2947F0A7E00120497A294924D
:0604200000120493A2008B
:0104260022B3
:10000300EC4D6011E8497017ED33EC3304600DE4F7
:10001300FCFFFEFD22E933E8330470F80201B3125A
:10002300017E58046009E4CC24815006285009025B
:1000330001BD2840030201BAC0E0EB4A7044B98015
:1000430006D0E0FB0201A9EF4E701CBD8008EBFF58
:10005300EAFEE9FD80EBE98DF0A4FEE5F00200EC99
:10006300E9CDF9EAFEEBFFEF89F0A4FCE5F0CE89D8
:10007300F0A42EFFE435F0CD89F0A42DFEE435F095
:100083008067EF4E7005BD80D780C3EF8BF0A4ACC3
:10009300F0EE8BF0A42CFCE435F0F8EF8AF0A42CFE
:1000A300E5F038FCE433CB8DF0A42CFCE5F03BF811
:1000B300EE8AF0A42CFCE5F038F8E433CF89F0A401
:1000C3002CFCE5F038CF3400CE89F0A42FFFE5F007
:1000D3003EFEE433C98DF0A42EFEE5F039CD8AF05F
:1000E300A42FFFE5F03EFEE43DFD33D0E0FB5007D7
:1000F3000BBB000F0201BDEC2CFCEF33FFEE33FE14
:06010300ED33FD02019541
:1001090075F020800E75F010800575F0087D007E71
:10011900007F003392D530D50312022FEC33401003
:10012900EF33FFEE33FEED33FDEC33FCD5F0ED227A
:0E013900E5F0247EA2D513CC92E7CDCEFF22B6
:10014700EDD2E7CD33EC3392D524814006E4FFFEB0
:10015700FDFC22FCE4CFCECDCC24E0501174FF800F
:10016700EDC3CC13CCCD13CDCE13CECF13CF0470AC
:07017700F030D5DE02022F7B
:10017E00E9D2E7C933E833F892D5EDD2E7CD33ECC7
:07018E0033FC5002B2D52240
:10019500EC30E7100FBF000C0EBE00080DBD0004CB
:1001A5000BEB6014A2D5EB13FCED92E7FD2274FF77
:1001B500FCFDFEFF22E480F8A2D574FF13FC7D80D0
:0301C500E480EFE4
:100249000204EDE493A3F8E493A34003F68001F2DA
:1002590008DFF48029E493A3F85407240CC8C333B6
:10026900C4540F4420C8834004F456800146F6DF85
:10027900E4800B01020408102040809004E2E47E2F
:10028900019360BCA3FF543F30E509541FFEE4937A
:10029900A360010ECF54C025E060A840B8E493A341
:1002A900FAE493A3F8E493A3C8C582C8CAC583CA6C
:1002B900F0A3C8C582C8CAC583CADFE9DEE780BE24
:0104EC00000F
:1001C800EF8DF0A4A8F0CF8CF0A428CE8DF0A42E4B
:0201D800FE2205
:1001DA00BC000BBE0029EF8DF084FFADF022E4CC09
:1001EA00F875F008EF2FFFEE33FEEC33FCEE9DECD2
:1001FA00984005FCEE9DFE0FD5F0E9E4CEFD22ED18
:10020A00F8F5F0EE8420D21CFEADF075F008EF2F61
:10021A00FFED33FD4007985006D5F0F222C398FD52
:05022A000FD5F0EA22EF
:0E022F00C3E49FFFE49EFEE49DFDE49CFC22E0
:00000001FF
