:030000000203D523
:0C03D500787FE4F6D8FD75812002041C3E
:1006C700C0F9A4B0999282F88090C18CC80000004C
:100649000114000108010109000217000002150147
:100659002C041000000000020A0000020C00000235
:030669000E000080
:0406D7007FC87E005A
:0B06DB00EF1FAC0670011E4C70F622F1
:10054F008D80EF603624FB601414601B146022242E
:10055F0003702BE5A0541F4480F5A08021E5A05423
:10056F001F44A0F5A08017E5A0541F44C0F5A0803C
:10057F000DE5A0541F44E0F5A0800353A01F53A026
:02058F001F2229
:100461007C007D0A1201DA7C007D0A1201DA74C770
:0D0471002DF58274063CF583E493FD7F06B3
:10047E00AB07AE057401A803088002C333D8FCFD98
:10048E007F0612054FAD060F12054F7FF47E011247
:10049E0006DBAF037401A807088002C333D8FCFD46
:0B04AE007F0612054F7DFF0F02054F77
:10031700E50824FE6042146076240260030203D4D9
:100327009006D1E493FDE4FF12047EAE17AF187C6C
:10033700007D641201DA74C72FF58274063EF583D7
:10034700E493547FFD7F0512047EAE17AF181204A5
:1003570061AE17AF180203BB9006D2E493FDE4FF2A
:1003670012047EAE15AF167C007D641201DA74C7E5
:100377002FF58274063EF583E493547FFD7F0512C3
:10038700047EAE15AF16120461AE15AF1680259028
:1003970006D3E493FDE4FF12047EAE0AAF0B7C00A4
:1003A7007D0A1201DA74C72FF58274063E120477AC
:1003B700AE0AAF0B7C007D0A1201DA74C72DF582F5
:0E03C70074063CF583E493FD7F0712047E224A
:100624008F198D1A1206E61206B67FA01205F8126B
:1006340006B6AF191205F81206B6AF1A1205F8126B
:0506440006B6020701EB
:0205C5008F198C
:1005C7001206E67FA01205F81206B6AF191205F853
:1005D7001206B61206E61206B67FA11205F8120633
:1005E700B612066D8F1AD20012068A120701AF1AC9
:0105F70022E1
:100591001206E67F901205F81206B67F031205F8DF
:1005A1001206B61207011203171206E67F91120511
:1005B100F81206B612066D8F1AD20012068A1207B9
:0305C10001AF1A6D
:0105C4002214
:1004B900E4F519120591EF2509F5090519E519C39F
:1004C900940340EFE50975F00384F509FCE4120192
:1004D900137BA17AA079A0783C1200038F138E12A6
:1004E9008D118C10E4FFFE7DC87C42AB13AA12A9C2
:0D04F90011A8101200031201478E178F1872
:0105060022D2
:10023D00C2B5D2B3D2B2D2B41206D720B21CE508E1
:10024D00B4030FE4F50CF50D30B2FDE4F50AF50B32
:10025D008008050DE50D7002050C20B3351206D78B
:10026D0020B32F30B3FD0508E508B4040AE4F50CFE
:10027D00F50D750801801BE508B40316AE15AF1614
:10028D007C007D0A1201DA8E0E8F0FAD0FE4FF1286
:10029D000624D2B3D2B2D2B5C2B420B2331206D72D
:1002AD0020B22DE508B40220E4F50CF50D30B2FDB9
:1002BD0074CE2516F51674FF3515F5154516701007
:1002CD007515017516F48008050DE50D7002050C08
:1002DD0020B3361206D720B330E508B40223E4F577
:1002ED000CF50D30B3FD74322516F516E43515F504
:1002FD0015E516B4F413E515B4010EE4F515F51670
:0A030D0022050DE50D7002050C221B
:10050700E4FDFF12054F7F0512054F7DFF1F120502
:100517004FE4FF1205C5750E008F0FD3E50F943218
:10052700E50E9400500DAE0E7C007D051201DAED4C
:100537004C6005E4F50EF50FAE0EAF0F7C007D0A9B
:080547001201C88E158F162267
:1006A10012050712023D1204B91203177F887E1347
:0506B1001206DB80EEE3
:0406F500D2A07F050B
:0806F90000AE071FEE70F922AC
:0F06E600D2A11206F5C2A17F051206F9C2A02209
:0C070100C2A11206F5D2A17F050206F984
:10068A00C2A0A20092A17F051206F91206F5C2A025
:07069A00D2A17F050206F961
:1006B6001206F5A2A19200C2A07F051206F9A200B9
:0106C6002211
:0205F800AD074D
:1005FA00E4FCC2A07F051206F9ED30E704D2A1801F
:10060A0002C2A17F051206F9D2A0ED25E0FD7F0501
:09061A001206F90CBC08DBC2A0B9
:0106230022B4
:10066D00E4FC1206F5ED25E0FD30A103430501C2C2
:0C067D00A07F051206F90CBC08E8AF05D0
:01068900224E
:10000300EC4D6011E8497017ED33EC3304600DE4F7
:10001300FCFFFEFD22E933E8330470F80201B3125A
:10002300017E58046009E4CC24815006285009025B
:1000330001BD2840030201BAC0E0EB4A7044B98015
:1000430006D0E0FB0201A9EF4E701CBD8008EBFF58
:10005300EAFEE9FD80EBE98DF0A4FEE5F00200EC99
:10006300E9CDF9EAFEEBFFEF89F0A4FCE5F0CE89D8
:10007300F0A42EFFE435F0CD89F0A42DFEE435F095
:100083008067EF4E7005BD80D780C3EF8BF0A4ACC3
:10009300F0EE8BF0A42CFCE435F0F8EF8AF0A42CFE
:1000A300E5F038FCE433CB8DF0A42CFCE5F03BF811
:1000B300EE8AF0A42CFCE5F038F8E433CF89F0A401
:1000C3002CFCE5F038CF3400CE89F0A42FFFE5F007
:1000D3003EFEE433C98DF0A42EFEE5F039CD8AF05F
:1000E300A42FFFE5F03EFEE43DFD33D0E0FB5007D7
:1000F3000BBB000F0201BDEC2CFCEF33FFEE33FE14
:06010300ED33FD02019541
:1001090075F020800E75F010800575F0087D007E71
:10011900007F003392D530D50312022FEC33401003
:10012900EF33FFEE33FEED33FDEC33FCD5F0ED227A
:0E013900E5F0247EA2D513CC92E7CDCEFF22B6
:10014700EDD2E7CD33EC3392D524814006E4FFFEB0
:10015700FDFC22FCE4CFCECDCC24E0501174FF800F
:10016700EDC3CC13CCCD13CDCE13CECF13CF0470AC
:07017700F030D5DE02022F7B
:10017E00E9D2E7C933E833F892D5EDD2E7CD33ECC7
:07018E0033FC5002B2D52240
:10019500EC30E7100FBF000C0EBE00080DBD0004CB
:1001A5000BEB6014A2D5EB13FCED92E7FD2274FF77
:1001B500FCFDFEFF22E480F8A2D574FF13FC7D80D0
:0301C500E480EFE4
:1003E1000206A1E493A3F8E493A34003F68001F28B
:1003F10008DFF48029E493A3F85407240CC8C3331D
:10040100C4540F4420C8834004F456800146F6DFEB
:10041100E4800B0102040810204080900649E47E2C
:10042100019360BCA3FF543F30E509541FFEE493E0
:10043100A360010ECF54C025E060A840B8E493A3A7
:10044100FAE493A3F8E493A3C8C582C8CAC583CAD2
:10045100F0A3C8C582C8CAC583CADFE9DEE780BE8A
:01066C00008D
:1001C800EF8DF0A4A8F0CF8CF0A428CE8DF0A42E4B
:0201D800FE2205
:1001DA00BC000BBE0029EF8DF084FFADF022E4CC09
:1001EA00F875F008EF2FFFEE33FEEC33FCEE9DECD2
:1001FA00984005FCEE9DFE0FD5F0E9E4CEFD22ED18
:10020A00F8F5F0EE8420D21CFEADF075F008EF2F61
:10021A00FFED33FD4007985006D5F0F222C398FD52
:05022A000FD5F0EA22EF
:0E022F00C3E49FFFE49EFEE49DFDE49CFC22E0
:00000001FF
