:0300000002000EED
:0C000E00787FE4F6D8FD75810A020055E9
:10019400C0F9A4B0999282F880908880C6C0868EF7
:0201A400BF7F1B
:0901C100010800010900010A0017
:1000DC00EF24FB601314601914601F24037023E5D4
:1000EC00A0541F4480F5A022E5A0541F44A0F5A005
:1000FC0022E5A0541F44C0F5A022E5A0541F44E003
:03010C00F5A02239
:10017600AE077F061200DCAF057401A807088002EF
:0E018600C333D8FCF5807F071200DC8E802288
:1001340075F00A8493FF1D1201767FF412014F902B
:0B01440001A4E41D93FF1201767FF47C
:07014F00AE071FEE70FA225B
:10009A00E50A75F00A84E5F09001947D071201489B
:1000AA00E50A120134E50975F00A84E5F090019435
:1000BA00120147E509120134E50875F00A84E5F0F2
:1000CA00900194120147E50875F00A8493FF1D0216
:0200DA000176AD
:07000300AE071FEE70FA22A8
:1001A600758901758C3C758AAFD2A9D2AFD28C22E3
:03000B0002010FE0
:10010F00C0E0C0D0758C3C758AAF050AE50AB414FF
:10011F000F0509750A00E50AB43C050508750900C5
:05012F00D0D0D0E03249
:1001560020B30A7F6412000320B302B28C20B20FD0
:100166007F6412000320B207E4F508F509F50A22B8
:0B01B6001201A612009A12015680F8F8
:10001A000201B6E493A3F8E493A34003F68001F245
:10002A0008DFF48029E493A3F85407240CC8C333E7
:10003A00C4540F4420C8834004F456800146F6DFB6
:10004A00E4800B01020408102040809001C1E47E84
:10005A00019360BCA3FF543F30E509541FFEE493AB
:10006A00A360010ECF54C025E060A840B8E493A372
:10007A00FAE493A3F8E493A3C8C582C8CAC583CA9D
:10008A00F0A3C8C582C8CAC583CADFE9DEE780BE55
:0101CA000034
:00000001FF
