:03000000020436C1
:0C043600787FE4F6D8FD75814402047D57
:1007D000C0F9A4B0999282F88090BFC100000000D7
:0407E0000000000015
:1006AA00072180828486888A8C072A8183858789A4
:1006BA008B8D0737285923000000000135010136C8
:1006CA00000243001702400000022800000142FF16
:0A06DA00023E0000043100000000A1
:04081B007FC87E0014
:0B081F00EF1FAC0670011E4C70F622AB
:0405EB00AD427F049A
:1005EF008D80EF603624FB601414601B146022248E
:1005FF0003702BE5A0541F4480F5A08021E5A05483
:10060F001F44A0F5A08017E5A0541F44C0F5A0809B
:10061F000DE5A0541F44E0F5A0800353A01F53A085
:02062F001F2288
:10059D009007DBE493FDE4FF1205B09007D2E493DE
:0305AD00FD7F01CE
:1005B000AB07AE057401A803088002C333D8FCFD65
:1005C0007F061205EFAD060F1205EF7FF47E0112D4
:1005D000081FAF037401A807088002C333D8FCFDCD
:0B05E0007F061205EF7DFF0F0205EF04
:10024800E53524FE606E1470030202F81470030290
:10025800033E240360030203809007DBE493FDE47C
:10026800FF1205B09007D11205ABAE40AF417C003C
:100278007D641201E574D02FF58274073EF583E49E
:1002880093FD7F051205B0AE40AF417C007D0A1298
:1002980001E57C007D0A1201E574D02DF582740712
:1002A8003CF583E493547FFD7F061205B0AE40AF62
:1002B8004102032A12059DE539C4540F9007D093D3
:1002C800FD7F031205B0E539540F93FD7F04120535
:1002D800B09007DAE493FD7F051205B0E538C45401
:1002E8000F9007D093FD7F061205B0E5380203771B
:1002F8009007DBE493FDE4FF1205B09007D31205E5
:10030800ABAE43AF447C007D0A1201E574D02FF5F3
:100318008274073EF583E493FD7F061205B0AE4371
:10032800AF447C007D0A1201E574D02DF582740774
:100338003CF583E4803B12059DE538C4540F9007D3
:10034800D093FD7F031205B0E538540F93FD7F0469
:100358001205B09007DAE493FD7F051205B0E53782
:10036800C4540F9007D093FD7F061205B0E53754AB
:090378000F93FD7F071205B0226E
:100531001207447FCC12076B7F4412076B120248EB
:100541001207447FCC12076B7FBE12076B1207891B
:100551008F081207898F09120744AF09EFFEE508DA
:10056100FFEE54F87035AD07AC06120119E4FBFA41
:100571007980783D12000E8F348E338D328C31E4C8
:10058100FFFE7D207C41AB34AA33A932A831120091
:0B0591000E1201528E408F41120248F2
:01059C00223C
:10071900E4FD7F8E1207E4E4F50874212508F8E664
:10072900FF74372508F8E6FD1207E40508E508C354
:0B073900940740E67D807F8E0207E4FD
:10063100E4F50A742A250AF8E6FF1206E57437255F
:100641000AF8A607050AE50AC3940740E6E53870EB
:100651001BE53770175342FE1205EBE536B4010670
:0C0661007D100F1205EF752800752901AF
:01066D00226A
:10080B00758901758C3D758AB0D2A9D2AFD28C2275
:03000B000204C22A
:1004C200C0E0C0F0C083C082C0D075D000C000C000
:1004D20001C002C003C004C005C006C007758C3D40
:1004E200758AB0120631E529640145287026053F58
:1004F200E53F7002053E6464453E701843420112B6
:1005020005EBE4FD0F1205EF752800752900753E15
:1005120000753F00D007D006D005D004D003D0022A
:0F052200D001D000D0D0D082D083D0F0D0E03242
:10038100C2B3D2B5D2B4D2B220B51312081B20B574
:100391000D30B5FD0535E535B40403753501C2B23F
:1003A100D2B5D2B4D2B320B51812081B20B512E5CC
:1003B10036700830B5FD753601800630B5FDE4F5BF
:1003C10036C2B3D2B5D2B4D2B220B42512081B20A2
:1003D100B41FE535B4031A30B4FDE5446463454305
:1003E1007007F54375446380080544E544700205D0
:1003F10043C2B2D2B5D2B4D2B320B43812081B2052
:10040100B432E535B4031A30B4FDE544640A45431A
:100411007007F54375440A8008E5441544700215D8
:1004210043E535B4020E20B4087535041202488044
:05043100F57535022203
:1007A300E4FDFF1205EF7F051205EF7DFF1F120524
:0707B300EF12071902080B09
:10066E001207A3120531120381E53670275342FD9E
:10067E001205EBAE43AF447C007D0A1201D3D3E5E5
:10068E00419FE5409E40047D108002E4FD7F0512EF
:0C069E0005EF80CF4342021205EB80C73D
:0407BA007F057E0039
:1007BE007C007D0A1201D3EF1FAC0670011E4C7037
:0207CE00F62211
:02076B00AB07DA
:10076D00E4FAC294EB1392941207BAD294EBC3132A
:0C077D00FB0ABA08ED7F057E000207BEF3
:10078900E4FAC294EBC313FBD2943094034303807D
:090799001207BA0ABA08EBAF031B
:0107A2002234
:10074400C200D2947F0C7E001207BEC2947F507EFA
:10075400001207BED2947F0A7E001207BEA29492B2
:06076400001207BAA2001A
:01076A00226C
:1007F800E4FEC297EF1392A3EFC313FFD2970EBE86
:0208080008F0F6
:01080A0022CB
:1007E400C29300C29700D293001207F8AF05120714
:0407F400F8C2932292
:1006E500E4FDC29300C29700D293001207F8E4FF1D
:1006F500C297EDC313FD30A303430580D2970FBF07
:1007050008EEC29300C29700D29700C2A300D2A3FD
:0307150000AF052D
:0107180022BE
:10000E00EC4D6011E8497017ED33EC3304600DE4EC
:10001E00FCFFFEFD22E933E8330470F80201BE1244
:10002E00018958046009E4CC248150062850090245
:10003E0001C82840030201C5C0E0EB4A7044B980F4
:10004E0006D0E0FB0201B4EF4E701CBD8008EBFF42
:10005E00EAFEE9FD80EBE98DF0A4FEE5F00200F783
:10006E00E9CDF9EAFEEBFFEF89F0A4FCE5F0CE89CD
:10007E00F0A42EFFE435F0CD89F0A42DFEE435F08A
:10008E008067EF4E7005BD80D780C3EF8BF0A4ACB8
:10009E00F0EE8BF0A42CFCE435F0F8EF8AF0A42CF3
:1000AE00E5F038FCE433CB8DF0A42CFCE5F03BF806
:1000BE00EE8AF0A42CFCE5F038F8E433CF89F0A4F6
:1000CE002CFCE5F038CF3400CE89F0A42FFFE5F0FC
:1000DE003EFEE433C98DF0A42EFEE5F039CD8AF054
:1000EE00A42FFFE5F03EFEE43DFD33D0E0FB5007CC
:1000FE000BBB000F0201C8EC2CFCEF33FFEE33FEFE
:06010E00ED33FD0201A02B
:1001140075F020800E75F010800575F0087D007E66
:10012400007F003392D530D50312023AEC334010ED
:10013400EF33FFEE33FEED33FDEC33FCD5F0ED226F
:0E014400E5F0247EA2D513CC92E7CDCEFF22AB
:10015200EDD2E7CD33EC3392D524814006E4FFFEA5
:10016200FDFC22FCE4CFCECDCC24E0501174FF8004
:10017200EDC3CC13CCCD13CDCE13CECF13CF0470A1
:07018200F030D5DE02023A65
:10018900E9D2E7C933E833F892D5EDD2E7CD33ECBC
:0701990033FC5002B2D52235
:1001A000EC30E7100FBF000C0EBE00080DBD0004C0
:1001B0000BEB6014A2D5EB13FCED92E7FD2274FF6C
:1001C000FCFDFEFF22E480F8A2D574FF13FC7D80C5
:0301D000E480EFD9
:1004420002066EE493A3F8E493A34003F68001F25C
:1004520008DFF48029E493A3F85407240CC8C333BB
:10046200C4540F4420C8834004F456800146F6DF8A
:10047200E4800B01020408102040809006AAE47E6A
:10048200019360BCA3FF543F30E509541FFEE4937F
:10049200A360010ECF54C025E060A840B8E493A346
:1004A200FAE493A3F8E493A3C8C582C8CAC583CA71
:1004B200F0A3C8C582C8CAC583CADFE9DEE780BE29
:0106E4000015
:1001D300EF8DF0A4A8F0CF8CF0A428CE8DF0A42E40
:0201E300FE22FA
:1001E500BC000BBE0029EF8DF084FFADF022E4CCFE
:1001F500F875F008EF2FFFEE33FEEC33FCEE9DECC7
:10020500984005FCEE9DFE0FD5F0E9E4CEFD22ED0C
:10021500F8F5F0EE8420D21CFEADF075F008EF2F56
:10022500FFED33FD4007985006D5F0F222C398FD47
:050235000FD5F0EA22E4
:0E023A00C3E49FFFE49EFEE49DFDE49CFC22D5
:00000001FF
