:10027900C0F9A4B0999282F88090BFFF00000000F5
:040289000000000071
:10022C00070880828486888A8C070F81838587895A
:0B023C008B8D071624592318040620A0
:0702FA00AE071FEE70FA22AF
:1000E3008D80EF603624FB601414601B146022249F
:1000F30003702BE5A0541F4480F5A08021E5A05494
:100103001F44A0F5A08017E5A0541F44C0F5A080AC
:100113000DE5A0541F44E0F5A0800353A01F53A096
:020123001F2299
:08012500C4540F90027993FD10
:10012D00AC07AE057401A804088002C333D8FCFDEA
:10013D007F061200E3AD060F1200E37FF41202FA00
:10014D00AF047401A807088002C333D8FCFD7F06F5
:09015D001200E37DFF0F0200E334
:10008F00E518C4540F90027993FDE4FF12012DE59A
:10009F0018540F93FD7F0112012D900283E493FDFD
:1000AF007F0212012DE5177F03120125E517540F6B
:1000BF0093FD7F0412012D900283E493FD7F0512BF
:1000CF00012DE5167F06120125E516540F93FD7FCE
:0400DF000702012DE6
:1001C600E4FD7F8E12028DE4F51D7408251DF8E608
:1001D600FF7416251DF8E6FD12028D051DE51DC3EB
:0B01E600940740E67D807F8E02028DB2
:1001F100E4F51D740F251DF8E6FF1201667416253E
:0D0201001DF8A607051DE51DC3940740E686
:01020E0022CD
:10024800E4FDFF1200E37F051200E37DFF1F1200AB
:0A025800E37F061200E30F0200E34B
:0E02D4001202481201C61201F112008F80F8CA
:1002A100E4FEC297EF1392A3EFC313FFD2970EBEE2
:0202B10008F053
:0102B3002228
:10028D00C29300C29700D293001202A1AF051202D1
:04029D00A1C2932245
:10016600E4FDC29300C29700D293001202A1E4FFFD
:10017600C297EDC313FD30A303430580D2970FBF8B
:1001860008EEC29300C29700D29700C2A300D2A382
:0301960000AF05B2
:010199002243
:0402E200D2A07F0522
:0802E60000AE071FEE70F922C3
:0F02C500D2A11202E2C2A17F051202E6C2A0225C
:0C02EE00C2A11202E2D2A17F050202E6CA
:10026200C2A0A20092A17F051202E61202E2C2A07F
:07027200D2A17F050202E6A4
:1002B4001202E2A2A19201C2A07F051202E6A201EB
:0102C4002217
:02019A00AD07AF
:10019C00E4FCC2A07F051202E6ED30E704D2A18098
:1001AC0002C2A17F051202E6D2A0ED25E0FD7F057B
:0901BC001202E60CBC08DBC2A033
:0101C5002217
:10020F00E4FC1202E2ED25E0FD30A103430501C23B
:0C021F00A07F051202E60CBC08E8AF0549
:01022B0022B0
:03000000020003F8
:0C000300787FE4F6D8FD75812002004AE9
:10000F000202D4E493A3F8E493A34003F68001F231
:10001F0008DFF48029E493A3F85407240CC8C333F2
:10002F00C4540F4420C8834004F456800146F6DFC1
:10003F00E4800B010204081020408090022CE47E23
:10004F00019360BCA3FF543F30E509541FFEE493B6
:10005F00A360010ECF54C025E060A840B8E493A37D
:10006F00FAE493A3F8E493A3C8C582C8CAC583CAA8
:10007F00F0A3C8C582C8CAC583CADFE9DEE780BE60
:0102470000B6
:00000001FF
