:03000000020003F8
:0C000300787FE4F6D8FD75810E02004AFB
:10021F0081838587898B8D80828486888A8CC0F9BB
:10022F00A4B0999282F880908880C6C0868EBF7FD6
:0902A50007083050231702061867
:0B029A00EF1FAC0670011E4C70F62236
:1001CD00EF24FB601114601514601614601A2404DA
:1001DD00701CC2A58002D2A5C2A6D2A722C2A5803C
:0F01ED0002D2A5D2A6D2A722C2A5C2A6C2A7221D
:10027C007F051201CDE4F5801F1201CD7580FF22A0
:1000D800540F93FF0D1200FF7FF47E0112029A7FE6
:1000E800FF1200FF90023DE493FF0D1200FF7FF422
:0700F8007E0112029A7FFF56
:1000FF00AE077F061201CDAF057401A80708800275
:0E010F00C333D8FCF5807F071201CD8E80220D
:10019800C29300C29700D29300E4FEEF1392A3EF3C
:1001A800C313FFD29700C297000EBE08EEE4FEED1F
:1001B8001392A3EDC313FDD29700C297000EBE0899
:0401C800EEC29300F0
:0101CC002210
:10008F00C29300C29700D29300E4FDEF1392A3EF47
:10009F00C313FFD29700C297000DBD08EEE4FDA277
:1000AF00A3E433FFC43333335480FCEEC3134CFE4D
:1000BF00D29700C297000DBD08E5C29300D29700FA
:0800CF00C2A300D2A300AF069A
:0100D7002206
:1001FC00E4FD7F8E120198E4FCEC90022693FF74D0
:10020C00082CF8E6FD1201980CBC07ED7D807F8E62
:03021C0002019844
:10023F00E4FBEB90021F93FF12008F74082BF8A6BC
:05024F00070BBB07EDE9
:010254002287
:10011D00E50AC4540F90022D93FFE4FD1200F3E5A0
:10012D000A1200D8E509C4540F90022D1200F0E513
:10013D00091200D8E508C4540F90022D1200F0E505
:10014D0008540F93FF0D1200FF7FF47E0112029AE7
:05015D007FFF0200FF1E
:0E028C0012027C1201FC12023F12011D80F8CA
:10026900E4FEC297EF1392A3EFC313FFD2970EBE1A
:0202790008F08B
:01027B002260
:10025500C29300C29700D29300120269AF05120241
:0402650069C29322B5
:10016200E4FDC29300C29700D29300120269E4FF39
:10017200C297EDC313FD30A303430580D2970FBF8F
:1001820008EEC29300C293C29700D29700C2A300A6
:05019200D2A300AF053F
:010197002245
:10000F0002028CE493A3F8E493A34003F68001F279
:10001F0008DFF48029E493A3F85407240CC8C333F2
:10002F00C4540F4420C8834004F456800146F6DFC1
:10003F00E4800B01020408102040809002A5E47EAA
:10004F00019360BCA3FF543F30E509541FFEE493B6
:10005F00A360010ECF54C025E060A840B8E493A37D
:10006F00FAE493A3F8E493A3C8C582C8CAC583CAA8
:10007F00F0A3C8C582C8CAC583CADFE9DEE780BE60
:0102AE00004F
:00000001FF
