:0300000002022BCE
:0C022B00787FE4F6D8FD75812002027295
:10047900C0F9A4B0999282F880908880C6C0868E0F
:0C048900BF7F4079243019120278001067
:10049500011400040800000000021000000115000E
:0A04A500040C000000000212000029
:0B053400EF1FAC0670011E4C70F62299
:100359008D80EF603624FB601414601B1460222426
:1003690003702BE5A0541F4480F5A08021E5A0541B
:100379001F44A0F5A08017E5A0541F44C0F5A08034
:100389000DE5A0541F44E0F5A0800353A01F53A01E
:020399001F2221
:10039B00AB07AE057401A803088002C333D8FCFD7C
:1003AB007F06120359AD060F1203597FF47E01121B
:1003BB000534AF037401A807088002C333D8FCFDD2
:0B03CB007F061203597DFF0F0203594B
:0F04FE00AE077DFF7F06120359AD060F020359AB
:1002B700AE12AF137C007D0A1201C874792DF58246
:1002C70074043CF583E493FD7F0212039BAE12AFE7
:1002D700137C007D0A1201C87C007D0A1201C874D4
:1002E700792DF58274043CF583E493FD7F011203B5
:1002F7009BAE12AF137C007D641201C8748B2FF57F
:0E0307008274043EF583E493FDE4FF02039B41
:020315008F1740
:1003170012050D7F901204101204DDE517B40104D5
:100327007F018007E517B403057F03120410120449
:10033700DD1205281202B712050D7F911204101263
:1003470004DD12045C8F18D2001204B0120528AF26
:01035700188D
:010358002282
:1003D6007F031203158F15AC15E41201137BA17A66
:1003E600A079A0783C1200038F0F8E0E8D0D8C0C19
:1003F600E4FFFE7DC87C42AB0FAA0EA90DA80C1225
:0904060000031201478E128F134E
:01040F0022CA
:10043C008F1612050D7F901204101204DD7F4312EB
:10044C0004101204DDAF161204101204DD0205288C
:1004C700E4FDFF1203597F051203597DFF1F120335
:0604D700597FFF0204FE44
:1004EE001204C71203D6AF1512043C1202B780F3E2
:04051C00D2A07F05E5
:0805200000AE071FEE70F92286
:0F050D00D2A112051CC2A17F05120520C2A02297
:0C052800C2A112051CD2A17F0502052013
:1004B000C2A0A20092A17F0512052012051CC2A0B5
:0704C000D2A17F0502052017
:1004DD0012051CA2A19200C2A07F05120520A20048
:0104ED0022EC
:02041000AD0736
:10041200E4FCC2A07F05120520ED30E704D2A180E2
:1004220002C2A17F05120520D2A0ED25E0FD7F05C5
:090432001205200CBC08DBC2A07D
:01043B00229E
:10045C00E4FC12051CED25E0FD30A103430501C2AF
:0C046C00A07F051205200CBC08E8AF05BD
:010478002261
:10000300EC4D6011E8497017ED33EC3304600DE4F7
:10001300FCFFFEFD22E933E8330470F80201B3125A
:10002300017E58046009E4CC24815006285009025B
:1000330001BD2840030201BAC0E0EB4A7044B98015
:1000430006D0E0FB0201A9EF4E701CBD8008EBFF58
:10005300EAFEE9FD80EBE98DF0A4FEE5F00200EC99
:10006300E9CDF9EAFEEBFFEF89F0A4FCE5F0CE89D8
:10007300F0A42EFFE435F0CD89F0A42DFEE435F095
:100083008067EF4E7005BD80D780C3EF8BF0A4ACC3
:10009300F0EE8BF0A42CFCE435F0F8EF8AF0A42CFE
:1000A300E5F038FCE433CB8DF0A42CFCE5F03BF811
:1000B300EE8AF0A42CFCE5F038F8E433CF89F0A401
:1000C3002CFCE5F038CF3400CE89F0A42FFFE5F007
:1000D3003EFEE433C98DF0A42EFEE5F039CD8AF05F
:1000E300A42FFFE5F03EFEE43DFD33D0E0FB5007D7
:1000F3000BBB000F0201BDEC2CFCEF33FFEE33FE14
:06010300ED33FD02019541
:1001090075F020800E75F010800575F0087D007E71
:10011900007F003392D530D50312021DEC33401015
:10012900EF33FFEE33FEED33FDEC33FCD5F0ED227A
:0E013900E5F0247EA2D513CC92E7CDCEFF22B6
:10014700EDD2E7CD33EC3392D524814006E4FFFEB0
:10015700FDFC22FCE4CFCECDCC24E0501174FF800F
:10016700EDC3CC13CCCD13CDCE13CECF13CF0470AC
:07017700F030D5DE02021D8D
:10017E00E9D2E7C933E833F892D5EDD2E7CD33ECC7
:07018E0033FC5002B2D52240
:10019500EC30E7100FBF000C0EBE00080DBD0004CB
:1001A5000BEB6014A2D5EB13FCED92E7FD2274FF77
:1001B500FCFDFEFF22E480F8A2D574FF13FC7D80D0
:0301C500E480EFE4
:100237000204EEE493A3F8E493A34003F68001F2EB
:1002470008DFF48029E493A3F85407240CC8C333C8
:10025700C4540F4420C8834004F456800146F6DF97
:10026700E4800B0102040810204080900495E47E8E
:10027700019360BCA3FF543F30E509541FFEE4938C
:10028700A360010ECF54C025E060A840B8E493A353
:10029700FAE493A3F8E493A3C8C582C8CAC583CA7E
:1002A700F0A3C8C582C8CAC583CADFE9DEE780BE36
:0104AF00004C
:1001C800BC000BBE0029EF8DF084FFADF022E4CC1B
:1001D800F875F008EF2FFFEE33FEEC33FCEE9DECE4
:1001E800984005FCEE9DFE0FD5F0E9E4CEFD22ED2A
:1001F800F8F5F0EE8420D21CFEADF075F008EF2F74
:10020800FFED33FD4007985006D5F0F222C398FD64
:050218000FD5F0EA2201
:0E021D00C3E49FFFE49EFEE49DFDE49CFC22F2
:00000001FF
