:0300000002026594
:0C026500787FE4F6D8FD75810C0202AC35
:10041800C0F9A4B0999282F88090C18CC8000000FD
:0B000E00020B000001080002090000C6
:0B042800EF1FAC0670011E4C70F622A6
:100335008D80EF603624FB601414601B146022244A
:1003450003702BE5A0541F4480F5A08021E5A0543F
:100355001F44A0F5A08017E5A0541F44C0F5A08058
:100365000DE5A0541F44E0F5A0800353A01F53A042
:020375001F2245
:03037700E493FD0F
:10037A00AB07AE057401A803088002C333D8FCFD9D
:10038A007F06120335AD060F1203357FF47E011284
:10039A000428AF037401A807088002C333D8FCFD00
:0B03AA007F061203357DFF0F020335B4
:10015700AE09AF0A7C007D0A12001E74182DF582C5
:1001670074043CF5837F07120377C3E50A940AE515
:100177000994004021AE09AF0A7C007D0A12001ED7
:100187007C007D0A12001E74182DF58274043CF55C
:10019700837F06120377C3E50A9464E50994004058
:1001A70024AE09AF0A7C007D6412001E7C007D0A24
:1001B70012001E74182DF58274043CF583E493FD38
:1001C7007F0512037AC3E50A94E8E50994034024FE
:1001D700AE09AF0A7C037DE812001E7C007D0A127F
:1001E700001E74182DF58274043CF583E493FD7F9B
:1001F7000412037AC3E50A9410E50994274024AE54
:1002070009AF0A7C277D1012001E7C007D0A1200B0
:100217001E74182DF58274043CF583E493FD7F0367
:1002270012037AAE09AF0AE4FCFD7BA07A86790156
:10023700F8D31200735026AE09AF0AE4FCFDF8129A
:1002470002F1E47B0AFAF9F81202F174182BF5822D
:0E02570074043AF583E493FD7F0212037A22C9
:1003DA00758916758CFF758AFF758D3D758BB0D240
:0A03EA00A9D2ABD2AFD28CD28E2282
:03000B000203F4F9
:1003F400C0E0758CFF758AFF050CE50C7002050BD7
:03040400D0E03213
:03001B000203B528
:1003B500C0E0C0D0758D3D758BB00508E508B41457
:1003C5000F850B09850C0A750B00750C0075080067
:0503D500D0D0D0E032A1
:10040700E4FDFF1203357F051203357DFF1F02034D
:0104170035AF
:0B0433001204071203DA12015780FBCD
:10027100020433E493A3F8E493A34003F68001F26C
:1002810008DFF48029E493A3F85407240CC8C3338E
:10029100C4540F4420C8834004F456800146F6DF5D
:1002A100E4800B010204081020408090000EE47EDF
:1002B100019360BCA3FF543F30E509541FFEE49352
:1002C100A360010ECF54C025E060A840B8E493A319
:1002D100FAE493A3F8E493A3C8C582C8CAC583CA44
:1002E100F0A3C8C582C8CAC583CADFE9DEE780BEFC
:0100190000E6
:10001E00BC000BBE0029EF8DF084FFADF022E4CCC6
:10002E00F875F008EF2FFFEE33FEEC33FCEE9DEC8F
:10003E00984005FCEE9DFE0FD5F0E9E4CEFD22EDD5
:10004E00F8F5F0EE8420D21CFEADF075F008EF2F1F
:10005E00FFED33FD4007985006D5F0F222C398FD10
:05006E000FD5F0EA22AD
:1002F100C2D5E830E70FB2D5E4C39BFBE49AFAE438
:1003010099F9E498F8EC30E717B2D51203271200F7
:10031100C5E4C39BFBE49AFAE499F9E498F88003F5
:100321001200C530D50DE4C39FFFE49EFEE49DFDA0
:04033100E49CFC222A
:10007300EB9FF5F0EA9E42F0E99D42F0EC6480C804
:0600830064809845F022A4
:1000890075F008758200EF2FFFEE33FECD33CDCC2E
:1000990033CCC58233C5829BED9AEC99E5829840B1
:1000A9000CF582EE9BFEED9AFDEC99FC0FD5F0D68E
:1000B900E4CEFBE4CDFAE4CCF9A88222B800C1B9B8
:1000C9000059BA002DEC8BF084CFCECDFCE5F0CBF6
:1000D900F97818EF2FFFEE33FEED33FDEC33FCEB2F
:1000E90033FB10D703994004EB99FB0FD8E5E4F9EA
:1000F900FA227818EF2FFFEE33FEED33FDEC33FCD7
:10010900C933C910D7059BE99A4007EC9BFCE99ACA
:10011900F90FD8E0E4C9FAE4CCFB2275F010EF2F0F
:10012900FFEE33FEED33FDCC33CCC833C810D7070F
:100139009BEC9AE899400AED9BFDEC9AFCE899F84A
:0E0149000FD5F0DAE4CDFBE4CCFAE4C8F922DD
:00000001FF
